:100000000C9434000C943E000C943E000C943E0082
:100010000C943E000C943E000C943E000C943E0068
:100020000C943E000C943E000C943E000C94400056
:100030000C943E000C943E000C943E000C943E0048
:100040000C943E000C943E000C943E000C943E0038
:100050000C943E000C943E000C943E000C943E0028
:100060000C943E000C943E0011241FBECFEFD4E050
:10007000DEBFCDBF0E9452000C946C000C940000B7
:100080001F920F920FB60F9211248F939F9395B1E9
:1000900081E0892785B99F918F910F900FBE0F90B6
:1000A0001F901895F894809181008360809381005F
:1000B00088E09DE39093890080938800809181007F
:1000C00088608093810080916F00826080936F00D0
:0C00D0007894209A289AFFCFF894FFCF74
:00000001FF
